:020000040800F2
:100000000000052019910008E18F0008E38F000827
:10001000E58F0008E78F0008E98F00080000000066
:10002000000000000000000000000000EB8F00084E
:10003000ED8F000800000000EF8F0008F18F00082E
:1000400069910008699100086991000869910008A8
:100050006991000869910008699100086991000898
:100060006991000869910008699100086991000888
:100070006991000869910008699100086991000878
:100080006991000869910008699100086991000868
:100090006991000869910008699100086991000858
:1000A0006991000869910008699100086991000848
:1000B0006991000869910008699100086991000838
:1000C0006991000869910008699100086991000828
:1000D0006991000869910008699100086991000818
:1000E0006991000869910008699100086991000808
:1000F00069910008699100086991000869910008F8
:1001000069910008699100086991000869910008E7
:1001100069910008699100086991000869910008D7
:1001200069910008699100086991000869910008C7
:1001300069910008699100086991000869910008B7
:1001400069910008699100086991000869910008A7
:100150006991000869910008699100086991000897
:100160006991000869910008699100086991000887
:100170006991000869910008699100080000000079
:100180006991000869910008699100086991000867
:100190006991000869910008699100086991000857
:1001A0006991000869910008699100086991000847
:1001B0006991000869910008699100086991000837
:0801C000699100086991000833
:1001D00010B5054C237833B9044B13B10448AFF381
:1001E00000800123237010BD68060020000000007D
:1001F000A8B200080C4B43B10C480D4910B5AFF341
:1002000000800C48036823B910BD0A48036833B95D
:100210007047094B002BF7D0BDE810401847064B3C
:10022000002BF5D0184700BF00000000A8B200085E
:100230006C0600206806002000000000F0B50400F5
:1002400081B008BF00201CD00F48002200230025E9
:100250002CC02CC02CC02438012600F1180C00F151
:10026000180286720684C0F818C0C26129B100F174
:10027000080391E8E01083E8E01000F047FB2060FD
:10028000012001B0F0BD0000DCC0002070B500F01E
:10029000E8FA040001D1002070BDA069A0F12C058E
:1002A00005F12C02E96A04F118008242A1F12C0642
:1002B00015D0286801F064F8E96A286B4860286B5B
:1002C000EA6A026028460AF021F8F16A354605F12B
:1002D0002C0004F118029042A1F12C06E9D1012072
:1002E00070BDF0B581B00C4600F0BBFA050018BF38
:1002F000002C33D0206888B3342009F0FFFF0600BB
:100300002CD0288C411C298405F118013085B4E8D3
:100310008D10A6E88D10B4E88D10A6E88D10283E4B
:1003200006F12C0424603463A8692060616005F143
:1003300008014460AC61306800F048FF10B1308DB6
:1003400001B0F0BD2168306B4860336B22683046E5
:100350001A6009F0DBFF288C411E2984002001B0BF
:10036000F0BD000070B50D4600F07BFA80B32900A7
:1003700000F02E8050F8181FA1F12C0404F12C027B
:10038000824225D0218DA94224D0E26AA2F12C0418
:1003900004F12C0686421BD0218DA9421AD0E26AB4
:1003A000A2F12C0404F12C06864211D0218DA94221
:1003B00010D0E26AA2F12C0404F12C06864207D088
:1003C000218DA9421CBFE26AA2F12C04D6D101E022
:1003D000002070BD002CFBD0206800F0D1FF002869
:1003E000F7D0E16A206B4860206BE26A0260204629
:1003F00009F08CFF012070BD30B581B00D46144668
:1004000000F02FFA002818BF002C28D000F11801A6
:1004100008682C3800F12C028A4220D0038DAB42B0
:1004200020D0C06A2C3800F12C028A4217D0038DEC
:10043000AB4217D0C06A2C3800F12C028A420ED091
:10044000038DAB420ED0C06A2C3800F12C028A42D8
:1004500005D0038DAB4218BFC06ADAD102E000209C
:1004600001B030BD0028FAD00068214601B0BDE8D7
:10047000304000F06DBF70B50E4614461D4600F0CA
:10048000F0F9002818BF002C28D000F118010868E6
:100490002C3800F12C028A4220D0038DB3421FD0A9
:1004A000C06A2C3800F12C028A4217D0038DB34267
:1004B00016D0C06A2C3800F12C028A420ED0038D6F
:1004C000B3420DD0C06A2C3800F12C028A4205D00C
:1004D000038DB34218BFC06ADAD101E0002070BDBD
:1004E0000028FBD02A4621460068BDE8704000F095
:1004F0007EBB000009B900207047C0F3C613C0F3EB
:100500008232D318420D594302F00302C91DC908B3
:10051000C900430CD14003F00F03042B0BD0082B70
:1005200001BFC0F3C612C0F38230821801EB022172
:10053000C91DC8087047C0F3C612C0F382308218C4
:1005400001EB0211C91DC808704710B5044609F037
:10055000A9FE204610BDDFF85C0840F24942016860
:10056000490849000160DFF850080168C1F30A0139
:10057000914215D1012000220021104308431DD0D3
:10058000DFF8381801228A6088680028FCD1DFF87B
:100590003028DFF830380A600968994226D0FEE733
:1005A000002040F2514C614508BF0122E4D00022F6
:1005B00040F252439942DFD10121DEE7DFF808081B
:1005C0000168C1F30A01B1F58A6F0FD1DFF8FC179A
:1005D00001228A6088680028FCD1DFF8E427DFF870
:1005E000E4370A600968994200D0FEE77047DFF8F7
:1005F000C40740F249420168490849000160DFF838
:10060000B8070168C1F30A01914215D10120002207
:100610000021104308431DD0DFF8A01701228A6093
:1006200088680028FCD1DFF89827DFF898370A603F
:100630000968994226D0FEE7002040F2514C6145FE
:1006400008BF0122E4D0002240F252439942DFD198
:100650000121DEE7DFF870070168C1F30A01B1F597
:100660008A6F0FD1DFF8641701228A60886800283A
:10067000FCD1DFF84C27DFF84C370A600968994253
:1006800000D0FEE7A3A07047DFF8280740F24942F8
:100690000168490849000160DFF81C070168C1F3DF
:1006A0000A01914215D10120002200211043084384
:1006B0001DD0DFF8081701228A6088680028FCD165
:1006C000DFF8FC26DFF8FC360A600968994226D07C
:1006D000FEE7002040F2514C614508BF0122E4D002
:1006E000002240F252439942DFD10121DEE7DFF8D8
:1006F000D8060168C1F30A01B1F58A6F0FD1DFF89E
:10070000CC1601228A6088680028FCD1DFF8B02668
:10071000DFF8B0360A600968994200D0FEE70FF2B0
:10072000C46000687047DFF88C0640F249420168F7
:10073000490849000160DFF880060168C1F30A0139
:10074000914215D1012000220021104308431DD001
:10075000DFF8681601228A6088680028FCD1DFF87B
:100760006026DFF860360A600968994226D0FEE705
:10077000002040F2514C614508BF0122E4D0002224
:1007800040F252439942DFD10121DEE7DFF838061B
:100790000168C1F30A01B1F58A6F0FD1DFF82C1699
:1007A00001228A6088680028FCD1DFF81426DFF86F
:1007B00014360A600968994200D0FEE70FF22860FB
:1007C00000687047DFF8EC0540F2494201684908CB
:1007D00049000160DFF8E0050168C1F30A019142B8
:1007E00015D1012000220021104308431DD0DFF85D
:1007F000CC1501228A6088680028FCD1DFF8C0256A
:10080000DFF8C0350A600968994226D0FEE700206B
:1008100040F2514C614508BF0122E4D0002240F271
:1008200052439942DFD10121DEE7DFF89C050168E0
:10083000C1F30A01B1F58A6F0FD1DFF890150122DB
:100840008A6088680028FCD1DFF87425DFF87435E9
:100850000A600968994200D0FEE70FF290500068E4
:10086000704730B420B10168DFF86425914200D0B0
:100870000020DFF8401540F249440B685B085B003C
:100880000B60DFF834150A68C2F30A02A24215D1E0
:10089000012100230022194311431DD0DFF81C253C
:1008A0000123936091680029FCD1DFF81435DFF84B
:1008B000144513601268A24226D0FEE7002140F2E0
:1008C0005145AA4208BF0123E4D0002340F252441C
:1008D000A242DFD10122DEE7DFF8EC140A68C2F39E
:1008E0000A02B2F58A6F0FD1DFF8E024012393608A
:1008F00091680029FCD1DFF8C834DFF8C8441360E0
:100900001268A24200D0FEE730BC7047DFF8C01486
:10091000016070470000000008467047704730B41F
:1009200020B10168DFF8A824914200D00020DFF850
:10093000841440F249440B685B085B000B60DFF8ED
:1009400078140A68C2F30A02A24215D101210023D9
:100950000022194311431DD0DFF860240123936066
:1009600091680029FCD1DFF85834DFF8584413604F
:100970001268A24226D0FEE7002140F25145AA4269
:1009800008BF0123E4D0002340F25244A242DFD149
:100990000122DEE7DFF830140A68C2F30A02B2F57A
:1009A0008A6F0FD1DFF82424012393609168002916
:1009B000FCD1DFF80C34DFF80C4413601268A2425B
:1009C00000D0FEE720B90FF23840006830BC704715
:1009D0000C3030BC00F01CBA00281CBF0C3000F0FA
:1009E0001CBA7047F0B581B0DBB2069D044607988B
:1009F00016462D0445EA036545EA00250FF204403A
:100A00000768FFF7A8FD24B90FF2FC3001B00068B9
:100A1000F0BDDFF8BC133160266000F0F7F910B9C3
:100A20000FF2CC300EE0DFF8AC138D4203D30FF29F
:100A3000C432176807E00FF2C03000F0C5FD20B9DE
:100A40000FF2B830076800212160384601B0F0BDD0
:100A500070B430B10168DFF87823914208BF0246D4
:100A600000D00022DFF84C1340F249440B685B08C9
:100A70005B000B60DFF840130B68C3F30A03A3426B
:100A800015D1012100240023214319431DD0DFF893
:100A90002C3301249C6099680029FCD1DFF82043A5
:100AA000DFF820531C601B68AB4224D0FEE7002116
:100AB00040F25146B34208BF0124E4D0002440F282
:100AC0005245AB42DFD10123DEE7DFF8FC120B68B1
:100AD000C3F30A03B3F58A6F0DD1DFF8F0320124B6
:100AE0009C6099680029FCD1B54CB64D1C601B6810
:100AF000AB4200D0FEE702B1002070BC70472DE988
:100B0000F0470A4618B10168B14B994200D0002065
:100B1000A84940F249450C68640864000C60A64985
:100B20000B68C3F30A03AB4212D101210024002356
:100B3000214319431AD0A14B01249C6099680029D4
:100B4000FCD19F4C9F4D1C601B68AB4222D0FEE73E
:100B5000002140F25146B34208BF0124E7D00024EF
:100B600040F25245AB42E2D10123E1E796490B68DE
:100B7000C3F30A03B3F58A6F0CD1944B01249C6034
:100B800099680029FCD18E4C8E4D1C601B68AB42CD
:100B900000D0FEE748B30AB9112206E0D16909B9CD
:100BA000132202E0D16839B9122210210C3000F072
:100BB00034F90020BDE8F08700F1140100F12407AA
:100BC00078CA81E8780092E8005387E80053C26B46
:100BD0004FF0030AC0F808A03AB1916850608A4209
:100BE00018BF002918BF0A46F7D1BDE8F0872DE9E4
:100BF000F04F83B028B10368754CA34208BF054687
:100C000000D000256B4840F2494403685B085B0054
:100C1000036069480368C3F30A03A34212D10120A9
:100C200000240023204318431AD0644B01249C6005
:100C300098680028FCD1624C624E1C601B68B3426D
:100C400022D0FEE7002040F25147BB4208BF0124FA
:100C5000E7D0002440F25246B342E2D10123E1E75B
:100C600059480368C3F30A03B3F58A6F0CD1574B95
:100C700001249C6098680028FCD1514C514E1C60A6
:100C80001B68B34200D0FEE7002D4BD0D5F808809A
:100C900008F00303032B02D0302211213EE00F00A5
:100CA0001CBFF868002837D0788808B9212234E0C2
:100CB00014000BD0E16861B3618811B921221321BE
:100CC0002CE0884202D02122022127E05FEAC850AE
:100CD0004FEA582808F00108A96B4CBF02200020F9
:100CE00048EA0008686B0A68066800927168306814
:100CF000FFF700FC0190009841680068FFF7FAFBDD
:100D0000002C0246F96814BFD4F80CB04FF0000B69
:100D10000CE01722132101E01722122105F10C002B
:100D200000F07BF8002003B0BDE8F08F18F002005F
:100D300014BFDFF8A490DFF8A4905FEAC8737B8843
:100D40004CBFDFF894A0DFF898A000272B826F82B9
:100D500008B9B160F16044B15FEAC87005D4009B86
:100D6000C3F808B00098C0F80CB06B8A288A834298
:100D70001CD22C463546019E17468846A868324646
:100D80004146B044C847A860204600F09FFC009848
:100D90003A4681685846D04700EB070B608A218AA3
:100DA000401C608280B28842E8D32546688A03B03E
:100DB000BDE8F08F002000E0002004E00030024099
:100DC000C2A507F4CDB5E8B50010005C004C025890
:100DD0000001C0A1010001014B050008190900082C
:100DE0001D090008030300000100000001010000CC
:100DF0003010000001100000038404840210000081
:100E000010100000000000001010000001207047CA
:100E10000146002208680A60704703785FEA036CA5
:100E200004D141EA0221016001207047002070478F
:100E30000200F0B414BF0029002042D000230B6050
:100E40008B60106800B100680424C8B3006888B3E0
:100E50000568002D2AD4406840B3C5F3C616C5F313
:100E60008237BE196F0C704307F00F07C01DC00812
:100E70006E0DC00006F00306F040042F0CD0082FC2
:100E800011D1C5F3C616C5F38235AE1900EB0620A5
:100E9000C01DC0080BE000BFC5F3C616C5F3823500
:100EA000AE1900EB0610C01DC00800E000200D6860
:100EB0004019086010685B1C0059241D0028C5D12A
:100EC0001846F0BC70472DE9F041C569038B02EB71
:100ED0008206006AD1F814C002EB42076C69DFF8A1
:100EE000248504EBC60400EB0716DCF800000F882D
:100EF0004FF0000CD0F800E04068DEF800200068F9
:100F000027804988C4F804C06180F169AF69D6F8C8
:100F100028C059430F443762ED690CFB03FC05EB15
:100F20000C01F16216683568002625F07C4EC64536
:100F300011D0DFF8D484C6450BD0DFF8D084C64585
:100F400005D0DFF8CC84C64508BF012604E0322670
:100F500002E0312600E01026002D63814CBF4FF4E3
:100F6000004C4FF0000C6D004CEA06064CBF4FF4ED
:100F7000804500252E4326811569A581D668E68126
:100F80009268226167610568DFF878742A68002535
:100F900022F07C46BE4211D0DFF86C74BE420BD00A
:100FA000DFF86874BE4205D0DFF86474BE4208BF43
:100FB000012504E0322502E0312500E01025002A59
:100FC00063834CBF4FF400460026354352004CBFAC
:100FD0004FF480420022154325830269A283C3682F
:100FE000E383806820626162BDE8F08170B50546E8
:100FF000DFF82024286913680B60002601F128041B
:101000005B1C13604E60EB688B60EA8A0E61CA60FD
:101010004C61C46B64B1324621462846761CFFF70A
:1010200052FFA068844218BF002818BF0446F2D1BE
:10103000012070BD2DE9F04381B00446E08A894665
:10104000A66B00EB80014FEA8008A06A06FB0986C8
:10105000CF00283708B1B84604E0A16CF01901FBB5
:1010600009008044E06988B9404609F047F9C11990
:10107000406281613144C0F82080C161628BE061CF
:101080000146A4F81890521C62830FE0616A456A19
:1010900009B128468847286A40450CD3E8198119C8
:1010A000A861E9612946E561A4F81890204601B0DD
:1010B000BDE8F0439AE7002001B0BDE8F0832DE9D8
:1010C000F04105466969686809680A68446C4B68BC
:1010D000C16BD2F800808D421E6801BF4FF0000C3A
:1010E000A4F814C0228B002A03D1018A2046FFF7FE
:1010F000A1FFA08A216AD5F804C0636800EB400212
:1011000001EB0217CCF844307968E960A36A9BB11F
:1011100000EB8001D8F80020C800E169D1F814C0C4
:10112000D2F8088000220CF1140E4EF800804969B4
:101130000144E06A984706E0D8F80000BA6981687F
:10114000386A09F0AFF8B5F9000000F0B1FA10B153
:10115000E96828468847A36A306883B1A18AE669AE
:10116000806801EB8102D100726902F1240801223A
:1011700048F8010070690144E06A984704E081681A
:101180007A6AF86A09F08EF868684464B968E960B8
:10119000386ABA6902443A62F96A786A0844F862BD
:1011A000A868854218BF00280BD1208BE168401E3B
:1011B000208380B2491CE16018B9E2699068091A7D
:1011C0009160A18A491CA182BDE8F0812DE9F04F10
:1011D00085B00C46FFF745FB05460027002D1CBFD8
:1011E000E96B002900F0878088687F1C81421CBF62
:1011F00000280146F8D17BE007EB470000015030A2
:1012000009F07CF886A280466946002C92E80852D4
:1012100081E80852804808F15002C8F800006B4687
:10122000E94614BF60680020002CC8F8240014BFF1
:10123000A0680020002CC8F8280014BFE068002037
:10124000002CC8F82C0014BF20780120C8F8080032
:10125000686C0021C8F80400C8F80C1008F14000C0
:10126000C8F81050A8F81670A8F81410A8F81810AC
:10127000C8F8202008F13002A8F81A10C8F81C108D
:1012800093E8905082E8905099E8060C80E8060CAC
:10129000EF6B4FF00009DFF884A187B3D8F8200086
:1012A00009EB490109F1010910EB0114C4F808A088
:1012B00012D038692060F96861607869C7F80CA0BD
:1012C00004F118010068FFF7B3FD786904F1240107
:1012D0000268101DFFF7ACFDB86887421CBF0028EC
:1012E0000746DBD10BE0002818BF01460ED11EE0F7
:1012F000002F7FF481AF002005B0BDE8F08FE96BCF
:10130000C5F8448000220023002681B1D8F82000CF
:1013100006EB4607761C00EB07108362D0F818C076
:10132000C261406AC318886862448142DBD1D21C22
:10133000DB1C92089B0892009B00C8F83820291DEE
:10134000C8F84830284605B0BDE8F04F00F00EB9A7
:10135000F0B581B00C46FFF784FA002818BF002CC6
:1013600002D0416CC96911B9002001B0F0BD91E80B
:10137000EC1084E8EC1040686060012001B0F0BD22
:1013800070B5FFF76EFA0146002300291CBF4C6CB4
:10139000002C03D02068204A904201D0002070BD6C
:1013A000CA6B82B1206A03EB43055B1C00EB05109E
:1013B00018B1066816614068D060906882421CBF10
:1013C00000280246EED162684A64E069A0B1E06993
:1013D000456A854219BF696A41620020E061616A1D
:1013E00009B128468847284608F090FF618BE069DC
:1013F0004A1E62830028EAD1204608F087FF0120B8
:1014000070BD000000040202070484020F08840279
:1014100000108003FC0500200101C0A1BF100008DE
:1014200010000100010001000000000000000000A9
:101430002DE9F041490800240023B1F5B47F0246AC
:1014400029D32D2032F8025B32F8026B6419E318BD
:1014500032F8027BA419E31832F802CBE419E3183E
:1014600032F802EB6444E31832F8028B7444E31858
:1014700032F8025B4444E31832F8026B6419E31853
:10148000A419E318401EDDD1A1F5B471B1F5B47F04
:10149000A4B29BB2D5D2E9B111F0030000F00680EE
:1014A00032F8025B6419E318401EF9D1890811D0A3
:1014B00032F8020B32F8025B2018C31832F8024BE4
:1014C0004019C31832F8025B0019C3184419E31815
:1014D000491EEDD1C4EA0340BDE8F081F0B50C46E9
:1014E00081B0002100910CB101682160C66B211D03
:1014F000A6B317E02B680F1D102218680860291D7D
:101500003846103708F0CEFE102205F11401384697
:1015100008F0C8FE07F11001B068864218BF002825
:101520001CD0064670690268009853681D68401C0C
:1015300000900CB9881C09E0307808707078487009
:10154000881CB11C0A7802704A784270811C002DF8
:10155000E2D0002CCED101F11407DBE70CB1009AE8
:101560000A60091D081B01B0F0BD61E7F0B5060077
:101570000D4681B018BF002D0AD00021FFF7AEFF45
:10158000074600202860384608F0B8FE040002D163
:10159000002001B0F0BD21463046FFF79FFF3946DD
:1015A0002046FFF745FF2860204608F0AFFE0120E7
:1015B00001B0F0BD10B50446E1688847A068A042BC
:1015C00008BF002010BD000000B581B060B10178F7
:1015D000032909D15FF0040263A108F09FFE401EB9
:1015E0008041C00F01B000BD002001B000BD00006F
:1015F00042F21172811A012984BFC91E0D2901D935
:101600000F3945D1801A21D0401E21D0801E21D013
:10161000401E21D0401E21D0401E21D0401E21D08E
:10162000401E21D0401E21D0401E21D0401E21D07E
:10163000401E21D0401E21D0401E21D0401E21D06E
:10164000401E21D0801E21D012A0704712A07047EA
:1016500012A0704727A0704728A0704710A07047BD
:1016600010A0704727A070470FA0704727A07047B1
:1016700028A070472CA070472DA070470BA0704782
:101680002DA070472EA0704730A0704734A070473F
:1016900000A070470000000041444400424E00009A
:1016A000475255004C524E004E4C0000534D000026
:1016B00042F21171401A012884BFC01E0D2801D9C1
:1016C0000F3801D1012070470020704730B581B03C
:1016D0000446E06B58B12064256CE96828468847C9
:1016E000A868A84208BF002000282064F4D101B0F7
:1016F00030BD0000434F4E563244000044454E5327
:10170000450000004C53544D000000004E4F524D18
:10171000000000004F5054494D495A45445F434F23
:101720004E563244000000005045524D555445007D
:10173000504F4F4C0000000053504C4954000000E3
:1017400054494D455F44454C4159000054494D456D
:101750005F444953545249425554454400000000E7
:10176000434F4E4341540000038404842DE9F04F5D
:1017700081B00E9E0D9D139C0A98DDF82C90DDF82B
:101780003CB0DDF840C0DDF844E0371B8842DDF8AE
:10179000488007FB09F70097A5EB040A05FB0CF549
:1017A000ABEB0E0B06FB09F706FB0C860CBF9FED9F
:1017B000820AB7EE000A09FB0AFA06FB09F603EBF8
:1017C00086030C9E04FB09F409FB05F9002E0BFBB4
:1017D00007FB02EB89094DD00D46194632460346F8
:1017E000BEF1010FD3ED000A60EE800A4E4639DBF0
:1017F0007046DDF800C0012C2CDB14F003080AD081
:1018000091ED001A091DD6ED001A361DB8F1010838
:1018100041EE210AF4D1A70800F01C8091ED002AC6
:1018200096ED001AD1ED011AD6ED012A42EE010A19
:1018300041EEA20A91ED022A96ED021AD1ED031AA9
:101840001031D6ED032A10367F1E42EE010A41EE1A
:10185000A20AE3D1401E06EB8A0601EB8C01CAD135
:10186000CDF800C0C5ED000A2D1D1B1D521E01EB59
:101870008B01B5D101B0BDE8F08F00002DE9F24F2A
:1018800084B01146149FDDF858B00E9A119D13983C
:10189000159CDDF85CC0DDF83CA0109EDDF848909A
:1018A000001BA5EB0C0E09FB07BBA9EB0C0803EB17
:1018B0008B0B049BB6FBFAF60AFB0EFE9A4200FB6A
:1018C00009F00CBF9FED3C0AB7EE000A7D430AFB0E
:1018D00005F501EB8501002501EB8A070097B94268
:1018E00066D20E920396039A002A5DD00E9B049F47
:1018F000029003EB8506134607EB85070191012C47
:10190000D6ED000A60EE800ADDF8049040DB224646
:10191000BCF1010F36DB1CF003010BD0491E9BED1F
:10192000001AD9ED001A0BF1040B41EE210A09EB64
:101930008A09F3D15FEA9C0000F0248009EB8A0158
:101940009BED001AD9ED001A401E41EE210ADBED95
:10195000011A91ED001A01EB8A0141EE810A9BED1B
:10196000021AD1ED001A01EB8A0141EE210ADBEDEA
:10197000031A0BF1100B01EB8A0991ED001A41EEED
:10198000810ADBD1521E09EB8E090BEB880BBFD10C
:101990006D1C0298C7ED000A3F1D361D5B1E0BEB48
:1019A000800BACD102980199009A091D91429AD3FB
:1019B00005B0BDE8F08F0000000000002DE9F24FF7
:1019C00084B09246DDF84CE0DDF858C018981099C4
:1019D0000F9F149AAEEB0C0E1E46129C159DB1FB88
:1019E000F2F91199CDF80C90B7FBF2F304FB03FB6D
:1019F000A7EB0309091AA4EB000879430EFB0BFEC1
:101A0000DDF85CB008FB03F804FB05B4DDF810B0AA
:101A10005C4306EB84040E9E5E45DDF844B00BFB90
:101A200005F50CBF9FED3D0AB7EE000A6F430AEBC8
:101A300087054FF0000A002A6DD00092039A002A11
:101A400063D0049A0E9ECDF858C002EB8A07039A21
:101A5000CDF808E006EB8A06CDF80450DDF858E032
:101A6000D6ED000A60EE800A019DBEF1010F3BDB5E
:101A7000012832DB4FEA000C05EB830B5D4527D2D2
:101A800094ED001A241DD5ED001A2D1D5D4541EE83
:101A9000210A1DD294ED002A241D95ED001A2D1D5A
:101AA0005D4542EE010A13D2D4ED001A241D95EDD6
:101AB000002A2D1D5D4541EE820A09D294ED001ADF
:101AC000241DD5ED001A2D1D5D4541EE210AD7D309
:101AD000BCF1010C05EB8905CED1BEF1010E05EB81
:101AE000810504EB8804C3D1361DDDF808C0C7EDBD
:101AF000000A3F1D521E04EB8C040AF1010AADD10D
:101B0000DDF858C0DDF808E0019D009F05EB830576
:101B10007F1E009792D105B0BDE8F08F0000000055
:101B20002DE9F04F8DB0169C04B90C461E9F1D9EEA
:101B3000DDF87080DDF880E01F9D0B90BF1B1798CB
:101B4000B8F1010FDDF860C0AEEB050EDDF8649072
:101B5000DDF868A0DDF86CB014D1CDF824E008956C
:101B6000079701900B980696CDF814B0CDF810A009
:101B7000CDF80C90CDF808C00094FFF7F7FD0DB03C
:101B8000BDE8F08F804514D1CDF824E00895079783
:101B900001900B980696CDF814B0CDF810A0CDF8B2
:101BA0000C90CDF808C00094FFF768FE0DB0BDE8BA
:101BB000F08FCDF828E00995089701900B980796CB
:101BC000CDF81880CDF814B0CDF810A0CDF80C9059
:101BD000CDF808C00094FFF7F1FE0DB0BDE8F08F1E
:101BE00070470000F0B5059C9FEDB60A03EB840535
:101BF000203D082C2FD205F12004A34224D20D78D9
:101C000093ED001A02EB85061B1DA342D6ED000AD8
:101C100000EE810A18D24D7893ED001A02EB85068A
:101C20001B1DA342D6ED000A00EE810A0CD28D786E
:101C300093ED001A02EB85061B1DC91CA342D6EDCD
:101C4000000A00EE810ADAD3D0ED001A31EE800AE4
:101C500080ED000AF0BD01F00304032CF4D8DFE8A6
:101C600004F00336424EEFE79D4280F0D98005F143
:101C70002004A342E8D20D7893ED001A02EB85060A
:101C80001B1DA342D6ED000A00EE810ADCD24D787E
:101C900093ED001A02EB85061B1DA342D6ED000A48
:101CA00000EE810AD0D28D7893ED001A02EB850602
:101CB0001B1DC91CA342D6ED000A00EE810ADAD32F
:101CC000D0ED001A31EE800A80ED000AF0BD11F867
:101CD000014B93ED001A02EB84061B1D2D1FD6ED60
:101CE000000A00EE810A11F8014B93ED001A02EB95
:101CF00084061B1D2D1FD6ED000A00EE810A11F887
:101D0000014B2D1F02EB84061C1DA54293ED001A0A
:101D1000D6ED000A00EE810A4FD3CF7891F800E0AB
:101D200002EB870C8F7804F1100394ED004A94EDD8
:101D3000013A94ED022ADCED000A02EB870C4F78A1
:101D400094ED031A0C79DCED001A02EB870C02EB20
:101D50008E07D7ED003A4F7903EE840A02EB870E27
:101D6000DCED002A02EB840C02EE830A8C7901EE92
:101D7000820ACF7900EE810A0831DCED000A02EB1D
:101D8000840C9EED001A02EB870E93ED004A03F1DE
:101D90001004D3ED013AA54200EE840ADCED001AEE
:101DA00093ED023A01EE230A9EED002AD3ED032AB9
:101DB00001EE830A02EE220AAFD205F120039C4213
:101DC000BFF442AF0D7894ED001A02EB8506241D96
:101DD0009C42D6ED000A00EE810ABFF435AF4D7883
:101DE00094ED001A02EB8506241D9C42D6ED000AF4
:101DF00000EE810ABFF428AF8D7894ED001A02EB53
:101E00008506241DC91C9C42D6ED000A00EE810AFD
:101E1000D8D3D0ED001A31EE800A80ED000AF0BD73
:101E2000CF7891F800E002EB870C8F7803F1100473
:101E300093ED004A93ED013A93ED022ADCED000A9E
:101E400002EB870C4F7893ED031A0B79DCED001A47
:101E500002EB870C02EB8E07D7ED003A4F7903EEC9
:101E6000840A02EB870EDCED002A02EB830C02EE03
:101E7000830A8B7901EE820ACF7900EE810A08315C
:101E8000DCED000A02EB830C9EED001A02EB870EDC
:101E900094ED004A04F11003D4ED013A9D4200EEA6
:101EA000840ADCED001A94ED023A01EE230A9EED5D
:101EB000002AD4ED032A01EE830A02EE220AAFD2F1
:101EC000D5E6000000000000F0B4049C9FED810AFC
:101ED00065086D0003EB8505AB422FD211F8016B4D
:101EE00093ED002A93ED011A083306F00F07360927
:101EF00002EB8606AB4202EB870CD6ED001A01EE30
:101F0000820ADCED000A00EE810A17D211F8016B9B
:101F100093ED002A93ED011A083306F00F073609F6
:101F200002EB8606AB4202EB870CD6ED001A01EEFF
:101F3000820ADCED000A00EE810ACFD3E40709D55E
:101F4000097893ED001A090902EB8102D2ED000A2B
:101F500000EE810AD0ED001A31EE800A80ED000A11
:101F6000F0BC70472DE9F04F9BB0054668690068EA
:101F70000168426880680F68D2F800A0D0F800E0DD
:101F80004068BA680D92DAF80830002801932B8C6B
:101F9000DAF81010DAF80C903E69D7F80C800C9340
:101FA000AC8C0F942A8DEC6ADEF80CB0CDF838B00A
:101FB000DEF8083000933F68DEF800E0AB69A4B2B9
:101FC000D7F808C01ABF006887680027DAF8000051
:101FD000DEF808E0D0F808A0E869002814BF05463C
:101FE000DFF87057644200290B946FD05242CDF84D
:101FF00058901992DDF838B0159610910B981599F4
:102000000B9A169CDDF864904042D8BF0020891AD4
:10201000594508FB029228BF5946002C4ED0029425
:10202000019CCDF838B0009E14939346CDF84CC077
:10203000CDF848E0119718901791029FD9F1000050
:10204000A8EB0901DDF844C0189ACDF800C0DDF80E
:1020500034C0D8BF0020B14209900792149B069368
:102060000D9A28BF31460A91179908915844DDF816
:102070004CE00E990192129B0CFB00F005910EEBC7
:1020800080020496CDF80C80514602940020FFF7A0
:1020900047FD2246514650460AEB840AA8470C9950
:1020A0007F1E89448B44C9D10194DDF838B0009675
:1020B000149BDDF84CC0DDF848E0119F0B990F9A96
:1020C000109C51180B91641E109497D11BB0BDE861
:1020D000F08F0000000000002DE9F04FB5B002467F
:1020E00050690068016843688068D1F800B02DA984
:1020F0001F68D0F800A043680BF1140494E8605006
:1021000081E86050DBF80880002BCDF80C80B968BE
:1021100002913869FC681C94DBF810500D95DBF8CF
:102120000C400194158C1295948C1194158D10957A
:10213000948DD2F83080D2F834E095690C95DAF8B5
:1021400008600096DAF80C10D2F83890CDF83C9080
:10215000D66B1B96D2F84090CDF86890566C1E96C0
:10216000D7F820C0956CD66C0CFB00FCCDF810C0E5
:10217000D7F81C90CDF86490DBF800B0DBF808C00D
:10218000CDF860C0DAF800A0DAF808B0CDF82CB0CD
:102190001ABF1B68D3F808B04FF0000BD369002BAF
:1021A00012BF0E93DFF8AC95CDF83890126DDDF8C4
:1021B00004901792009B109ADDF848C0DDF810A03B
:1021C0007642A9EB0309914419FA88F2DDF83480CC
:1021D000D7F80090B2FBFCF3119A5B1CA8EB010846
:1021E000A04418FA8EFE0028BEFBF2FCD9F808E0E5
:1021F0000CF1010CF244CDF858A000F025816D429D
:10220000CDF8ACC0349515962590159D2B98349F2C
:10221000002D2A46CCBFA9464FF000091B9DAA18E5
:10222000904232BF8446DDF854C0AC441C9800286C
:1022300000F00181A9EB0C0A2C94CDF8CCA0119AE6
:102240002693CDF89090CDF8A4C014972390149CB9
:102250002698299DDDF8CCA0F0464FF00009002C0F
:102260002346CCBF264600260F9CE318984232BF77
:102270000346149BE3182498F41A04FB0AFAA842B4
:1022800080F2CB8002FB00F728462C9C249D3C1B4F
:1022900011922296451B1298289313942095139A15
:1022A0000D9B139C5242D8BF00221B1B8B42109BDC
:1022B0003ABF0D9E351B0D46229C229E4443E31AD5
:1022C000289CA64280F29E80AD1AA4EB060C3295A3
:1022D000139D309ECDF89CB0CDF884A0039C129045
:1022E000009F7543019E3195029D1D919A46CDF840
:1022F000A8E0E3461F92319ADDF8BCE0DAF1000174
:10230000A6EB0A00D8BF002101EB0A0CB8421898CE
:102310000EFB0C220244279834BFA6EB0A033B466F
:1023200000B94046DDF830E05B1ADDF8C8C0BEF108
:10233000010F16D10993DDF874E0CDF81CC0DDF86B
:102340007CC00B9B089100904146CDF818C000203E
:10235000CDF814E00497039602950194FFF706FA6E
:102360002AE0A64512D109931D9B08911F99059358
:102370000B9B0691414600900020CDF81CC00497AD
:10238000039602950194FFF779FA15E00A930C9BE6
:1023900009911F9906930B9BCDF820C0DDF874C0FE
:1023A0000791414600900020CDF814C00497039691
:1023B00002950194FFF702FB0E9B2A4641464046D8
:1023C00009F1010998472198DDF85CC02B462A469F
:1023D0004146484518BF002000902A98E0471299CE
:1023E000BBF1010BDDF858808A4484D10394129824
:1023F00002951D990196DDF89CB00097DDF8A8E0E4
:10240000DDF884A0139B119C209DE31813936D1E8F
:1024100020957FF444AF1290119A14981A9B239D33
:10242000199C181814906D1EA64423957FF40FAFC5
:1024300011922C9C269B159A1E9D259EAA181592DA
:10244000761E25967FF4E1AE35B0BDE8F08F000032
:102450002DE9F04F89B040694FF0000E0068016827
:102460004268806805680E6844681768F868D6F89E
:1024700008803A69B96850432A6813684FEA535A8A
:102480000AF0030AC3F3C6195B0C03F00F0329FA21
:102490000AF9042BCDF80490366814BF082BD2F843
:1024A0000CE03A680028AB69D2F80890B26809EBF2
:1024B000810667D0079505940691CDF810E0009647
:1024C0000390079805990468A06809B10D68A96888
:1024D000049C94B9009EB14549D2B24646464F4647
:1024E0001C46154681468846B8F1000F19BF58F8BA
:1024F000040B02900022029229E0009CA14536D2F2
:10250000049C1D46164682468B46009FBBF1000F79
:10251000334602A819BF5BF8041B02910022029205
:102520000199CDF8008022460429514602D1FFF7D7
:10253000CBFC01E0FFF756FB029AAA4449F8042BB2
:10254000B945E3D304942B46324600970FE0334657
:102550002A46494602A800F0FBFF0298A14447F82A
:10256000040B5745C0D3B0462346B9462A460099C6
:10257000069C02EB880201EB840503990095491E35
:1025800003919ED109B0BDE8F08F00002DE9F04F16
:102590008AB09A461546149BD0F804C06C68009423
:1025A0008B46D3F804E0CDF808E00488BBF80010AF
:1025B000BBF802204088B5F800E06F880025B3F82A
:1025C00000905E884FFA8AF3DBF804B0002BCDF858
:1025D00014B0CDF810B00CBFA0468046012F0CBF40
:1025E00000230423BEF1010F04D1012F07D0C6F14F
:1025F000000E05E0012F08BF4FF0010E00D0AE46DF
:102600004FFA8AFB0FFA8EFEBBF1000FCDF804E003
:102610000CBFA3468346CB4516D19DF94CE0BEF1D5
:10262000000F0CBF91468946B1450DD14FFA8AFB88
:10263000BBF1000F0CBF8346A346BEF1000F0CBFD9
:102640000E461646B34570D06FF002000AB0BDE8E2
:10265000F08F059D9700089786000796CDF818C063
:10266000DDF810C0ADF802404FEA08044FFA8AF6D0
:10267000002E9FED371ADDF818800CBF0646BDF816
:102680000260B6B14FFA8AF7002FD8ED001A95ED27
:10269000002A0CBF0427079FBEF1000FB84401EECB
:1026A000821A0CBF089F0427ED19761EB7B2002FBF
:1026B000E8D1641EA4B2BEF1000F20EE011ADBEDDA
:1026C000001A9B4400EEA11A89ED001A09F10409D1
:1026D0000EBF151B0D1B5543002C0CEB8505C5D1FA
:1026E000CDF810C0DDF80C90099E4FFA8AFCBCF1C1
:1026F000000F069DBDF80240B144CDF80C90BDF826
:1027000000900CBF4FEA800C4FF0040CAC44019DCC
:102710000BEB850BA9F10106ADF80060BDF8005088
:1027200055B900200AB0BDE8F08FDDF800B0039580
:10273000ADF80080CDF82490BEF1000FDDF80890D0
:1027400003AE358809EB85090CBF9046884680E7C3
:1027500000000000E11B0008F0B58BB0416909687A
:102760000A68496809681568546893680A68CF68F8
:10277000D1F810E004A99668ADF820E0ADF8227019
:1027800009962E68EF682D69B668ADF81850ADF857
:102790001A7007962568E6682469AD68ADF81040A0
:1027A000ADF8126005951C68DD681B69A468ADF87A
:1027B0000830039408ACADF80A50019490F9212038
:1027C000009290F92030D0ED070A02AA90ED060A97
:1027D00006A8FFF7DBFE0BB0F0BD00002DE9F041CD
:1027E00014460F46022C06462DED028B97ED008A0B
:1027F000DFEDC38A3DD3611E3A1D11F003000CD0FA
:1028000092ED000A02F10402B4EE480AF1EE10FA69
:1028100058BFB0EE408A401EF2D1890800F02B80EC
:1028200092ED000AB4EE480AF1EE10FA58BFB0EE8D
:10283000408A92ED010AB4EE480AF1EE10FA58BF50
:10284000B0EE408A92ED020AB4EE480AF1EE10FAB8
:1028500058BFB0EE408A92ED030A02F11002B4EEC6
:10286000480AF1EE10FA58BFB0EE408A491ED7D19F
:1028700001E0002C40D0B0464FEA040597ED000A75
:102880003F1D30EE480A06F0CDFC6D1E88ED000AB3
:1028900078EE808A08F10408F0D114F00300B7EE56
:1028A000000A80EE280A09D0D6ED000A401E60EE2C
:1028B000800AC6ED000A06F10406F5D1A4081BD073
:1028C000D6ED000A641E60EE800AC6ED000A96EDA1
:1028D000011A21EE001A86ED011AD6ED020A96EDD4
:1028E000031A60EE801A61EE000AC6ED021AC6ED08
:1028F000030A06F11006E3D1BDEC028BBDE8F081BE
:102900002DE9F0430C4681B004EB820980461D4658
:10291000089E099F4C450AD22A46214604EB8604AC
:102920004046FFF75BFF08EB87084C45F4D301B046
:10293000BDE8F08370B50D46044605EB8206B5424E
:1029400080F00A8095ED000A2D1D06F00FFC84ED45
:10295000000A241DB542F5D370BD000070B50D46C8
:10296000044605EB8206B54280F0148095ED000A1E
:102970002D1DB1EE400A06F055FCF7EE000A70EE90
:10298000200AB7EE001A81EE201A84ED001A241DE9
:10299000B542EBD370BD000001EB8202914216D22A
:1029A0004FF0FF3391ED000A8446B5EE400A0CF17A
:1029B0000400F1EE10FACCBF9FEDBD0A00EE103A14
:1029C000091DB8EEC00A91428CED000AEAD37047A7
:1029D00001EB8202914216D2034691ED001A181DB6
:1029E000B4EE410AF1EE10FA58BFB0EE401AB4EE60
:1029F000601AF1EE10FA58BFB0EE601A091D91424C
:102A000083ED001AE8D3704701EB820291420FD2A6
:102A1000034691ED000A181DB5EE400AF1EE10FADA
:102A2000D8BF9FED370A091D914283ED000AEFD30D
:102A30007047000001EB820291421AD2B1EE080AFF
:102A40000346D1ED000A181DF5EE400AF1EE10FA2A
:102A500008DDF4EE400AF1EE10FA58BFF0EE400A3D
:102A600002E000BFDFED260A091D9142C3ED000A16
:102A7000E6D37047F0B50D4681B005EB82060446FB
:102A80002DED048BF0EE408AB542B0EE608A32D272
:102A9000274695ED009A3C1DB5EE409AF1EE10FAEE
:102AA000B0EE490A4CBFDFED169AF0EE499A06F0F7
:102AB000B9FBFFEE000A30EE200A20EE280AB5EE40
:102AC000400AF1EE10FA05DD9FED0D1A79EE819ABC
:102AD0000AE000BFB0EE490A06F0A4FBFFEE000AD0
:102AE00030EE200A40EE289A2D1D28EE290AB54224
:102AF00087ED000ACCD3BDEC048B01B0F0BD000023
:102B00000000000001EB8303994220D291ED000AFE
:102B10008446B5EE400A0CF10400F1EE10FA92ED95
:102B2000001A4CBFDFED980AF0EE400AB1EE400A01
:102B3000B5EE400AF1EE10FA48BF9FED930A091D69
:102B4000121D994241EE400ACCED000ADED37047D7
:102B500030B44069046821680D686B68AA68E96848
:102B600028692D6853434B4361684343A8680A684A
:102B7000146800EB83029042A1680FD20B4690EDDF
:102B8000000A191DB5EE400AF1EE10FAD8BF9FED0C
:102B90007E0A001D904283ED000AEFD330BC7047DF
:102BA00030B44069046821680D686B68AA68E968F8
:102BB00028692D6853434B4361684343A8680A68FA
:102BC000146800EB83029042A1681AD2B1EE080AA1
:102BD0000B46D0ED000A191DF5EE400AF1EE10FA91
:102BE00008DDF4EE400AF1EE10FA58BFF0EE400AAC
:102BF00002E000BFDFED640A001D9042C3ED000A51
:102C0000E6D330BC70470000F0B581B02DED048BE9
:102C1000416990ED078AD0ED068A0E683268146823
:102C20006568A368E268216920685D43554384684C
:102C30004D43716804EB85050A681068AC428668EC
:102C400031D2374694ED009A3E1DB5EE409AF1EE32
:102C500010FAB0EE490A4CBFDFED4B9AF0EE499AFC
:102C600006F0E0FAFFEE000A30EE200A20EE280A15
:102C7000B5EE400AF1EE10FA04DD9FED431A79EE4D
:102C8000819A09E0B0EE490A06F0CCFAFFEE000A9C
:102C900030EE200A40EE289A241D28EE290AAC4284
:102CA00087ED000ACDD3BDEC048B01B0F0BD000070
:102CB0000100000070B4416980690D682A681668D7
:102CC0007468B368F268316936685C4354436A6873
:102CD0004C43B16813681D680368986801EB84036E
:102CE0009942AA681FD2144691ED000A221DB5EE42
:102CF000400AF1EE10FA90ED001A4CBFDFED220A07
:102D0000F0EE400AB1EE400AB5EE400AF1EE10FADC
:102D100048BF9FED1D0A091D001D994241EE400A62
:102D2000C4ED000ADFD370BC7047000030B44069C6
:102D3000046821680D686B68AA68E96828692D68CD
:102D400053434B4361684343A8680A68146800EB27
:102D500083029042A16815D24FF0FF330C4690EDEC
:102D6000000A211DB5EE400AF1EE10FACCBF9FED2E
:102D7000070A00EE103A001DB8EEC00A904284ED3A
:102D8000000AEBD330BC70470000000001000000D7
:102D900070B4416990ED070AD0ED060A0D682A6803
:102DA00016687468B368F268316930685C435443EC
:102DB00080684C4369680A68136800EB840290429B
:102DC000996816D20B4690ED001A191DF4EE410ACF
:102DD000F1EE10FA58BFB0EE601AB4EE401AF1EE00
:102DE00010FA58BFB0EE401A001D904283ED001A51
:102DF000E8D370BC7047000070B540690568296869
:102E00000C686368A268E1682069246853434B43F7
:102E10006968A4684343086804EB83060268B44207
:102E2000956813D294ED000A241DB1EE400A06F015
:102E3000F9F9F7EE000A70EE200AB7EE001A81EEFB
:102E4000201A85ED001A2D1DB442EBD370BD000091
:102E500070B54069056829680C686368A268E16814
:102E60002069246853434B436968A4684343086856
:102E700004EB83060268B442956809D294ED000A17
:102E8000241D06F073F985ED000A2D1DB442F5D31B
:102E900070BD70B582B04069046821680D68AA6889
:102EA000019200926E681346E9682869646872436B
:102EB0002D684A4342432068A9680568A868FFF75F
:102EC0001FFD02B070BD000070B401EB8204A1428E
:102ED00057D2002B51D013F003020D46064611D0F5
:102EE00096ED000AD5ED000AF4EE400AF1EE10FA74
:102EF00058BFB0EE600A86ED000A521E361D2D1D29
:102F0000002AEDD19A0838D0D5ED000AD6ED001A86
:102F1000F4EE610AF1EE10FA48BFF0EE610AC6ED78
:102F2000000AD5ED010AD6ED011AF4EE610AF1EEC0
:102F300010FA96ED020A48BFF0EE610AC6ED010AEA
:102F400095ED021AB4EE401AF1EE10FAD6ED031A1E
:102F500048BFB0EE401A86ED021AD5ED030AF4EE32
:102F6000610AF1EE10FA58BFF0EE601AC6ED031ACE
:102F7000521E10361035002AC6D101EB8301A14242
:102F8000A7D370BC7047000070B401EB8204A1426B
:102F90004FD2002B49D013F003020D4606460ED047
:102FA000884295ED000A1CBFD6ED000A30EE800A7B
:102FB00086ED000A521E361D2D1D002AF0D19A08FA
:102FC00033D08842D5ED001A0CD1C6ED001A95ED2C
:102FD000010A86ED010AD5ED021AC6ED021AD5EDF9
:102FE000031A1BE0D6ED000A30EEA10A86ED000AB6
:102FF00096ED011A95ED010A71EE000AC6ED010A7F
:10300000D6ED021AD5ED020A31EEA00A86ED020ACB
:1030100096ED030A95ED031A70EE011AC6ED031A38
:10302000521E10361035002ACBD101EB8301A1428C
:10303000AFD30399A1B300EE101AB8EE400AF7EE31
:10304000000A80EE800A5BB313F0030100F00A80EF
:10305000D0ED000A491E60EE800AC0ED000A00F1C2
:103060000400F5D19B081BD0D0ED000A5B1E60EE7A
:10307000800AC0ED000A90ED011A21EE001A80EDE1
:10308000011AD0ED020A90ED031A60EE801A61EE8B
:10309000000AC0ED021AC0ED030A00F11000E3D1EE
:1030A00070BC70472DE9F04F8EB003465869006838
:1030B00001684268D1F8008017683D69D8F810109F
:1030C0000991FA680892D8F80C90D8F808109A6913
:1030D000D3F81CC0CDF81CC0186AD3F824E0CDF892
:1030E00034E0D8F800803F68DE6A9C6AD8F808802F
:1030F000D7F808E07642002D009600F0D7800195C1
:1031000064420C9401FB09F70B97009B099D079FF4
:10311000009C5B42009BCCBF4FF0000CDDF800C070
:10312000EB1ABB420C9D88BF3B461C19089B002B29
:1031300000F0B38009FB0CFACDF80C90CDF828A074
:1031400002920690CDF814C004946842039F029A3C
:10315000DDF828C0DDF82C90CCBF002028467F1B6E
:10316000974288BF17467F193F1A60444F43484330
:1031700008EB800C09B311F003007246644605D0D9
:10318000401E54F8046B42F8046BF9D1880814D03F
:1031900094ED000A401E82ED000AD4ED010AC2ED52
:1031A000010A94ED020A82ED020AD4ED030A1034FA
:1031B000C2ED030A10320028EAD10598049A904221
:1031C00061DA121AE2460AEB870BDA4557D2002978
:1031D00051D011F003005446764611D096ED000A06
:1031E000D4ED000AF4EE400AF1EE10FA58BFB0EE4A
:1031F000600A86ED000A401E361D241D0028EDD110
:10320000880838D0D4ED000AD6ED001AF4EE610A31
:10321000F1EE10FA48BFF0EE610AC6ED000AD4EDF7
:10322000010AD6ED011AF4EE610AF1EE10FA96EDFC
:10323000020A48BFF0EE610AC6ED010A94ED021AD7
:10324000B4EE401AF1EE10FAD6ED031A48BFB0EE14
:10325000401A86ED021AD4ED030AF4EE610AF1EE8B
:1032600010FA58BFF0EE601AC6ED031A401E103671
:1032700010340028C6D10AEB810ADA45A7D3521EC2
:103280000CEB890C9ED106980EEB810E45195B1E46
:103290007FF45BAFDDF80C90029A009F0D9DEF1953
:1032A0000097019C641E01947FF42FAF0EB0BDE81F
:1032B000F08F00002DE9F04F94B0416909684B6828
:1032C0000A681F6816683A6934690C94FB680B93A6
:1032D000D6F80CC0B1688569C369002A0A93046AEC
:1032E000D0F824E0CDF84CE036683F68D0F82C8068
:1032F000D0F828E0B368D7F80890C8F10008CDF8F6
:10330000048000F02281CEF1000E01FB0CF7039245
:10331000CDF848E01197019E01980A9FDDF804E07E
:1033200076420C9ECCBF0022019A301AB842129EFF
:1033300088BF384686440B98002800F0FD800CFBBF
:1033400002FBCDF814C0A2EB0E0ACDF840B0CDF8C8
:103350003CA00495099408930792CDF818E00096D4
:103360000290009B059A0098DDF800E0119C5B42FA
:10337000049BCCBF4FF0000CDDF800C0101A089A77
:10338000984288BF184686440F98ACEB0E05AEEB0A
:103390000C064E43454310986044484302EB8007B7
:1033A000002289B111F003004B4603D0401E43F8C0
:1033B000042BFBD1880807D01A60401E5A609A601F
:1033C000DA6003F11003F7D10798069B984280F268
:1033D000A380AEEB0C0C1B1ACDF834C094460E94AF
:1033E0000D9ABE460EEB8608944465450CBF2C46EC
:1033F0000024C6454DD20022002946D011F003001A
:10340000F246CB4610D0F1459AED000A0AF1040AC3
:103410001CBFDBED000A30EE800A521C8BED000A67
:10342000401E0BF1040BEED188082ED00EEB820A61
:1034300009EB8202F145DAED001A1CBF92ED000A99
:1034400070EE211AC2ED001ADAED011A1CBFD2ED9E
:10345000010A70EEA11AC2ED011A9AED021A1CBF00
:1034600092ED020A30EE011A82ED021ADAED031A29
:103470000AF1100A1CBFD2ED030A70EEA11AC2EDC8
:10348000031A401E10320028D4D10EEB810EC6451F
:10349000B1D3002C3AD000EE104A0022B8EE400A18
:1034A000F7EE000A80EE800A81B311F003004C466B
:1034B00000F00B80D4ED000A521C60EE800A401E22
:1034C000C4ED000A04F10404F4D1880800F01E8061
:1034D00009EB8202D2ED000A401E60EE800AC2EDC6
:1034E000000A92ED011A21EE001A82ED011AD2EDC6
:1034F000020A92ED031A60EE801A61EE000AC2ED34
:10350000021AC2ED030A02F11002E3D15B1E0E980B
:1035100007EB80077FF464AF009A099B029C09EBDC
:1035200081099A180092641E02947FF41AAF1C4617
:10353000DDF814C0049D089B019A139E039FB218E6
:1035400001927F1E03977FF4E6AE14B0BDE8F08FC2
:1035500030B504460846114681B01A46002500954C
:103560006B4600F0FDFF94ED000ADDED000A70EE01
:10357000200AC4ED000A01B030BD0000F0EE400AA0
:10358000F5EE400AF1EE10FA9FED280A01DBB1EEEC
:10359000E00A704705F046BE05F0C2BE05F0E6BD84
:1035A000B5EE400AF1EE10FAD8BF9FED200A704741
:1035B000B5EE400AF1EE10FAD8BF20EE200A7047AF
:1035C00000B581B0B1EE400A05F02CFEF7EE000A1E
:1035D00001B030EE200AB7EE001A81EE000A00BDFD
:1035E000F0EE400A9FED121AB6EE000A00EE810AD4
:1035F000DFED100AB4EE600AF1EE10FA07DAB5EE6C
:10360000400AF1EE10FA04D59FED080A7047B7EEB4
:10361000000A7047B5EE400AF1EE10FACCBF9FEDFC
:10362000060A9FED060AB8EEC00A704700000000C7
:10363000CDCC4C3E0100803F01000000FFFFFFFFAA
:1036400081F0004102E000BF83F0004330B54FEA53
:1036500041044FEA430594EA050F08BF90EA020FC0
:103660001FBF54EA000C55EA020C7FEA645C7FEA53
:10367000655C00F0E2804FEA5454D4EB5555B8BF76
:103680006D420CDD2C4480EA020281EA030382EAE7
:10369000000083EA010180EA020281EA0303362D79
:1036A00088BF30BD11F0004F4FEA01314FF4801C4C
:1036B0004CEA113102D0404261EB410113F0004F5E
:1036C0004FEA03334CEA133302D0524263EB430315
:1036D00094EA050F00F0A780A4F10104D5F1200EB3
:1036E0000DDB02FA0EFC22FA05F2801841F100010E
:1036F00003FA0EF2801843FA05F359410EE0A5F1E2
:1037000020050EF1200E012A03FA0EFC28BF4CF012
:10371000020C43FA05F3C01851EBE37101F00045C8
:1037200007D54FF0000EDCF1000C7EEB00006EEBD5
:103730000101B1F5801F1BD3B1F5001F0CD349085F
:103740005FEA30004FEA3C0C04F101044FEA4452B6
:1037500012F5800F80F09A80BCF1004F08BF5FEA3D
:10376000500C50F1000041EB045141EA050130BD1D
:103770005FEA4C0C404141EB010111F4801FA4F1C0
:103780000104E9D191F0000F04BF01460020B1FA15
:1037900081F308BF2033A3F10B03B3F120020CDA4D
:1037A0000C3208DD02F1140CC2F10C0201FA0CF02B
:1037B00021FA02F10CE002F11402D8BFC2F1200C90
:1037C00001FA02F120FA0CFCDCBF41EA0C01904046
:1037D000E41AA2BF01EB0451294330BD6FEA04048F
:1037E0001F3C1CDA0C340EDC04F11404C4F120027A
:1037F00020FA04F001FA02F340EA030021FA04F38C
:1038000045EA030130BDC4F10C04C4F1200220FAE2
:1038100002F001FA04F340EA0300294630BD21FA20
:1038200004F0294630BD94F0000F83F4801306BFE6
:1038300081F480110134013D4EE77FEA645C18BFDA
:103840007FEA655C29D094EA050F08BF90EA020F71
:1038500005D054EA000C04BF1946104630BD91EA69
:10386000030F1EBF0021002030BD5FEA545C05D16C
:103870004000494128BF41F0004130BD14F58004AB
:103880003CBF01F5801130BD01F0004545F0FE411F
:1038900041F470014FF0000030BD7FEA645C1ABF54
:1038A000194610467FEA655C1CBF0B46024650EA8B
:1038B000013406BF52EA033591EA030F41F40021B7
:1038C00030BD00BF90F0000F04BF0021704730B53D
:1038D0004FF4806404F132044FF000054FF0000112
:1038E00050E700BF90F0000F04BF0021704730B5D3
:1038F0004FF4806404F1320410F0004548BF4042A8
:103900004FF000013EE700BF42004FEAE2014FEAFC
:1039100031014FEA02701FBF12F07F4393F07F4FD7
:1039200081F06051704792F0000F14BF93F07F4F09
:10393000704730B54FF4607401F0004521F000414C
:1039400020E700BF50EA010208BF704730B54FF0D2
:1039500000050AE050EA010208BF704730B511F0D7
:10396000004502D5404261EB41014FF4806404F10F
:1039700032045FEA915C3FF4DCAE4FF003025FEA91
:10398000DC0C18BF03325FEADC0C18BF033202EB19
:10399000DC02C2F1200300FA03FC20FA02F001FA73
:1039A00003FE40EA0E0021FA02F11444C1E600BF12
:1039B00070B54FF0FF0C4CF4E06C1CEA11541DBFC5
:1039C0001CEA135594EA0C0F95EA0C0F00F0DEF890
:1039D0002C4481EA030621EA4C5123EA4C5350EA75
:1039E000013518BF52EA033541F4801143F48013C6
:1039F00038D0A0FB02CE4FF00005E1FB02E506F057
:103A00000042E0FB03E54FF00006E1FB03569CF0AB
:103A1000000F18BF4EF0010EA4F1FF04B6F5007FB1
:103A200064F5407404D25FEA4E0E6D4146EB060623
:103A300042EAC62141EA55514FEAC52040EA5E50AC
:103A40004FEACE2EB4F1FD0C88BFBCF5E06F1ED856
:103A5000BEF1004F08BF5FEA500E50F1000041EB8D
:103A6000045170BD06F0004646EA010140EA02003A
:103A700081EA0301B4EB5C04C2BFD4EB0C0541EA5C
:103A8000045170BD41F480114FF0000E013C00F371
:103A9000AB8014F1360FDEBF002001F0004170BD95
:103AA000C4F10004203C35DA0C341BDC04F11404AE
:103AB000C4F1200500FA05F320FA04F001FA05F23A
:103AC00040EA020001F0004221F0004110EBD37007
:103AD00021FA04F642EB06015EEA430E08BF20EA33
:103AE000D37070BDC4F10C04C4F1200500FA04F3D6
:103AF00020FA05F001FA04F240EA020001F0004168
:103B000010EBD37041F100015EEA430E08BF20EADA
:103B1000D37070BDC4F1200500FA05F24EEA020E22
:103B200020FA04F301FA05F243EA020321FA04F051
:103B300001F0004121FA04F220EA020000EBD37008
:103B40005EEA430E08BF20EAD37070BD94F0000F08
:103B50000FD101F00046400041EB010111F4801F3C
:103B600008BF013CF7D041EA060195F0000F18BFED
:103B7000704703F00046520043EB030313F4801F29
:103B800008BF013DF7D043EA0603704794EA0C0FE3
:103B90000CEA135518BF95EA0C0F0CD050EA4106F9
:103BA00018BF52EA4306D1D181EA030101F0004176
:103BB0004FF0000070BD50EA410606BF104619469E
:103BC00052EA430619D094EA0C0F02D150EA0136AA
:103BD00013D195EA0C0F05D152EA03361CBF1046EB
:103BE00019460AD181EA030101F0004141F0FE418A
:103BF00041F470014FF0000070BD41F0FE4141F40E
:103C0000780170BD70B54FF0FF0C4CF4E06C1CEA0D
:103C100011541DBF1CEA135594EA0C0F95EA0C0FC2
:103C200000F0A7F8A4EB050481EA030E52EA03357D
:103C30004FEA013100F088804FEA03334FF080559E
:103C400045EA131343EA12634FEA022245EA1115CB
:103C500045EA10654FEA00260EF000419D4208BF7C
:103C6000964244F1FD0404F5407402D25B084FEA29
:103C70003202B61A65EB03055B084FEA32024FF4D5
:103C800080104FF4002CB6EB020E75EB030E22BF32
:103C9000B61A754640EA0C005B084FEA3202B6EBF2
:103CA000020E75EB030E22BFB61A754640EA5C00A1
:103CB0005B084FEA3202B6EB020E75EB030E22BF31
:103CC000B61A754640EA9C005B084FEA3202B6EB32
:103CD000020E75EB030E22BFB61A754640EADC00F1
:103CE00055EA060E18D04FEA051545EA16754FEA53
:103CF00006164FEAC30343EA52734FEAC2025FEA71
:103D00001C1CC0D111F4801F0BD141EA00014FF0FF
:103D100000004FF0004CB6E711F4801F04BF0143D0
:103D20000020B4F1FD0C88BFBCF5E06F3FF6AFAEEC
:103D3000B5EB030C04BFB6EB020C5FEA500C50F17C
:103D4000000041EB045170BD0EF0004E4EEA1131FF
:103D500014EB5C04C2BFD4EB0C0541EA045170BD06
:103D600041F480114FF0000E013C90E645EA060E4A
:103D70008DE60CEA135594EA0C0F08BF95EA0C0F78
:103D80003FF43BAF94EA0C0F0AD150EA01347FF4C0
:103D900034AF95EA0C0F7FF425AF104619462CE797
:103DA00095EA0C0F06D152EA03353FF4FDAE1046FA
:103DB000194622E750EA410618BF52EA43067FF44B
:103DC000C5AE50EA41047FF40DAF52EA43057FF4DB
:103DD000EBAE12E74FF0FF3C06E000BF4FF0010CE6
:103DE00002E000BF4FF0010C4DF804CD4FEA410C4A
:103DF0007FEA6C5C4FEA430C18BF7FEA6C5C1BD017
:103E000001B050EA410C0CBF52EA430C91EA030F97
:103E100002BF90EA020F0020704710F1000F91EAF4
:103E2000030F58BF994208BF90422CBFD8176FEAC2
:103E3000E37040F0010070474FEA410C7FEA6C5C90
:103E400002D150EA013C07D14FEA430C7FEA6C5C97
:103E5000D6D152EA033CD3D05DF8040B704700BFC3
:103E60008446104662468C461946634600E000BF11
:103E700001B5FFF7B7FF002848BF10F1000F01BDE3
:103E80004DF808EDFFF7F4FF0CBF012000205DF8AE
:103E900008FB00BF4DF808EDFFF7EAFF34BF012033
:103EA00000205DF808FB00BF4DF808EDFFF7E0FFCC
:103EB00094BF012000205DF808FB00BF4DF808ED1D
:103EC000FFF7CEFF94BF012000205DF808FB00BF84
:103ED0004DF808EDFFF7C4FF34BF012000205DF866
:103EE00008FB00BF4FEA4102B2F1E04324BFB3F543
:103EF000001CDCF1FE5C0DD901F0004C4FEAC00261
:103F00004CEA5070B2F1004F40EB830008BF20F044
:103F10000100704711F0804F21D113F13872BCBFFE
:103F200001F00040704741F480114FEA5252C2F153
:103F30001802C2F1200C10FA0CF320FA02F018BF9C
:103F400040F001004FEAC1234FEAD32303FA0CFCEF
:103F500040EA0C0023FA02F34FEA4303CCE77FEA7E
:103F6000625307D150EA01331EBF4FF0FE4040F4C8
:103F70004000704701F0004040F0FE4040F4000077
:103F8000704700BF80F0004002E000BF81F00041B8
:103F900042001FBF5FEA410392EA030F7FEA226CEF
:103FA0007FEA236C6AD04FEA1262D2EB1363C1BF7F
:103FB000D218414048404140B8BF5B42192B88BFEE
:103FC000704710F0004F40F4000020F07F4018BF11
:103FD000404211F0004F41F4000121F07F4118BF31
:103FE000494292EA030F3FD0A2F1010241FA03FCD9
:103FF00010EB0C00C3F1200301FA03F100F00043C1
:1040000002D5494260EB4000B0F5000F13D3B0F188
:10401000807F06D340084FEA310102F10102FE2AF7
:1040200051D2B1F1004F40EBC25008BF20F0010067
:1040300040EA03007047490040EB000010F4000F15
:10404000A2F10102EDD1B0FA80FCACF1080CB2EBA8
:104050000C0200FA0CF0AABF00EBC2505242184307
:10406000BCBFD0401843704792F0000F81F40001AC
:1040700006BF80F400000132013BB5E74FEA41037F
:104080007FEA226C18BF7FEA236C21D092EA030FEB
:1040900004D092F0000F08BF0846704790EA010F65
:1040A0001CBF0020704712F07F4F04D1400028BF92
:1040B00040F00040704712F100723CBF00F5000074
:1040C000704700F0004343F0FE4040F400007047AA
:1040D0007FEA226216BF08467FEA23630146420256
:1040E00006BF5FEA412390EA010F40F48000704769
:1040F0004FF0000304E000BF10F0004348BF40420F
:104100005FEA000C08BF704743F0964301464FF04A
:1041100000001CE050EA010208BF70474FF00003A6
:104120000AE000BF50EA010208BF704711F00043E7
:1041300002D5404261EB41015FEA010C02BF8446B7
:104140000146002043F0B64308BFA3F18053A3F516
:104150000003BCFA8CF2083AA3EBC25310DB01FA5D
:1041600002FC634400FA02FCC2F12002BCF1004FE1
:1041700020FA02F243EB020008BF20F00100704772
:1041800002F1200201FA02FCC2F1200250EA4C00C6
:1041900021FA02F243EB020008BF20EADC7070470C
:1041A00053B94AB9002908BF00281CBF4FF0FF319E
:1041B0004FF0FF3000F07AB9ADF1080C6DE904CE94
:1041C00000F006F8DDF804E0DDE9022304B07047F2
:1041D0002DE9F0478C460D460446089E002B51D130
:1041E0008A4217466DD9B2FA82FEBEF1000F0BD09B
:1041F000CEF1200C01FA0EF520FA0CFC02FA0EF7B3
:104200004CEA050C00FA0EF44FEA174A250CBCFBE9
:10421000FAF81FFA87F90AFB18CC45EA0C4508FBA7
:1042200009F3AB420AD9ED1908F1FF3280F023817E
:10423000AB4240F22081A8F102083D44ED1AA4B23D
:10424000B5FBFAF00AFB105544EA054400FB09F9F6
:10425000A14509D9E41900F1FF3380F00A81A14595
:1042600040F2078102383C44A4EB090440EA0840CC
:104270000021002E61D024FA0EF400233460736014
:10428000BDE8F0878B4207D9002E54D0002186E884
:1042900021000846BDE8F087B3FA83F1002940F019
:1042A0008E80AB4202D3824200F2FA80841A65EB20
:1042B00003050120AC46002E3FD086E81010BDE873
:1042C000F08712B90127B7FBF2F7B7FA87FEBEF104
:1042D000000F34D1EB1B3A0C1FFA87FC0121B3FB12
:1042E000F2F8250C02FB183345EA03450CFB08F3F2
:1042F000AB4207D9ED1908F1FF3002D2AB4200F210
:10430000D1808046ED1AA3B2B5FBF2F002FB105546
:1043100043EA05440CFB00FCA44507D9E41900F16D
:10432000FF3302D2A44500F2B8801846A4EB0C0477
:1043300040EA08409DE731463046BDE8F087CEF1BF
:10434000200405FA0EF307FA0EF720FA04F83A0CE7
:1043500025FA04F448EA0308B4FBF2F14FEA1845E1
:1043600002FB11441FFA87FC45EA044501FB0CF3EC
:10437000AB4200FA0EF409D9ED1901F1FF3080F0DB
:104380008A80AB4240F2878002393D44EB1A1FFA23
:1043900088F5B3FBF2F002FB103345EA034500FB5E
:1043A0000CF3AB4207D9ED1900F1FF386FD2AB42E5
:1043B0006DD902383D44EB1A40EA01418FE7C1F163
:1043C000200722FA07F88B4005FA01F448EA0303B4
:1043D00020FA07FE4FEA134CFD404EEA040EB5FBEF
:1043E000FCF94FEA1E440CFB19551FFA83F844EA06
:1043F000054509FB08F4AC4202FA01F200FA01FAA1
:1044000008D9ED1809F1FF3043D2AC4241D9A9F1E6
:1044100002091D442D1B1FFA8EFEB5FBFCF00CFBA0
:1044200010554EEA054400FB08F8A04507D9E418EA
:1044300000F1FF3529D2A04527D902381C4440EAB3
:104440000940A4EB0804A0FB02894C45C6464D4632
:1044500015D312D056B1BAEB0E0364EB050404FA7F
:1044600007F7CB401F43CC40376074600021BDE8A4
:10447000F0871846F8E69046E0E6C245EAD2B8EB87
:10448000020E69EB03050138E4E72846D7E740460A
:1044900091E78146BEE7014678E702383C4445E7AC
:1044A000084608E7A8F102083D442BE7704700BF23
:1044B000034613F8012B002AFBD1181A0138704764
:1044C00001F0FF01102A2BDB10F0070F08D010F8C5
:1044D000013B013A8B422DD010F0070F42B3F6D1C9
:1044E000F0B441EA012141EA014122F007047FF0E2
:1044F00000070023F0E80256083C85EA010586EA39
:10450000010685FA47F5A3FA87F586FA47F6A5FA74
:1045100087F68EB9EED1F0BC01F0FF0102F0070280
:1045200032B110F8013B013A83EA010313B1F8D12B
:104530000020704701387047002D06BF354603380C
:10454000073815F0010F07D1013015F4807F02BF45
:10455000013015F4C03F0130F0BC0138704700BF96
:1045600010B49408DFED1E7A22E090ED007AD1EDD0
:10457000006A27EE267A77EE877A90ED017AD1ED00
:10458000016A27EE267A77EE877A90ED027AD1EDEE
:10459000026A27EE267A77EE877A90ED037AD1EDDC
:1045A000036A27EE267A77EE877A013C10311030C5
:1045B000002CDAD102F003020AE090ED007AD1ED8E
:1045C000006A27EE267A77EE877A013A04310430C2
:1045D000002AF2D1C3ED007A5DF8044B704700BFAA
:1045E0000000000010B504460E4B18784FF47A73A3
:1045F000B3FBF0F30C4A1068B0FBF3F000F0A2F844
:1046000068B90F2C01D9012010BD002221464FF0BE
:10461000FF3000F067F8034B5C60002010BD012004
:1046200010BD00BF00000020F805002008B5074AB3
:10463000136843F400731360032000F041F8002076
:10464000FFF7D0FF04F0B4FC002008BD003C02409E
:10465000034A1168034B1B780B441360704700BF7B
:104660000CC1002000000020014B1868704700BFFB
:104670000CC1002038B50446FFF7F6FF0546B4F13B
:10468000FF3F02D0044B1B781C44FFF7EDFF401B9B
:104690008442FAD838BD00BF0000002000487047AF
:1046A00000060201014B1868000C7047002004E06E
:1046B000024B1868C0F30B00704700BF002004E0F5
:1046C0000649CB6823F4E0631B041B0C000200F4D2
:1046D000E0600343024A1A43CA60704700ED00E0FD
:1046E0000000FA0530B4144BDB68C3F30223C3F1B6
:1046F0000704042C28BF04241D1D062D13D9033BD9
:10470000012505FA04F4013C2140994005FA03F320
:10471000013B13401943002807DB0901C9B2074BCD
:10472000195430BC70470023EAE700F00F0009017C
:10473000C9B2034B1954F4E700ED00E000E400E0D7
:1047400014ED00E00138B0F1807F0AD2064B5860CA
:10475000F021064A82F823100020986007221A6090
:1047600070470120704700BF10E000E000ED00E05E
:10477000002838D010B50446437F1BB3022363776B
:1047800023791BBB2368194A5A612268936823F076
:1047900018039360637913BB23684FF0FF321A61EB
:1047A0002268936823F0600361690B439360226879
:1047B000936823F08003A1690B439360012363771F
:1047C000002010BD037704F027FBD7E7E268A1685B
:1047D000204600F00DF80028DCD0012010BD236831
:1047E00022691A61DCE70120704700BFB71DC104D0
:1047F00010B41F2300E0234621FA03F414F0010F44
:1048000003D15C1E002BF6D12346102A13D0182AA0
:104810000DD0082A13D00368596101688B6823F012
:1048200018031A438A6000205DF8044B7047062B7A
:10483000F1D90120F8E7072BEDD90120F4E70F2B80
:10484000E9D90120F0E70000F0B583B0002437E09B
:10485000092600E0002606FA0EF6324302336C4EBB
:1048600046F823206B4B1A68EB4302EA03064F68B5
:1048700017F4803F01D045EA0206664A1660526886
:1048800003EA02064F6817F4003F01D045EA02062A
:10489000604A5660926803EA02064F6817F4801F68
:1048A00001D045EA02065B4A9660D26813404E6822
:1048B00016F4001F01D045EA0203564AD3600134C2
:1048C0000F2C00F2A3800123A3400A6803EA02052B
:1048D000AB42F4D14A68122A18BF022A12D14FEA19
:1048E000D40E0EF1080E50F82E2004F00706B60084
:1048F0000F27B74022EA07020F6907FA06F632438C
:1049000040F82E2006684FEA440E032202FA0EF207
:10491000D24316404F6807F0030707FA0EF73E43ED
:1049200006604E68771E112E18BF012F01D9122E76
:104930000FD186681640CF6807FA0EF73E438660AF
:10494000466826EA03034E68C6F30016A6403343C2
:104950004360C3681A408B6803FA0EF31A43C260BF
:104960004B6813F0805FAAD02B4B5A6C42F4804204
:104970005A645B6C03F480430193019BA3089E1C63
:10498000234A52F8262004F003064FEA860E0F262B
:1049900006FA0EF622EA0602204FB8423FF45AAF5A
:1049A0001F4EB04222D006F58066B04220D006F5F8
:1049B0008066B0421ED006F58066B0421CD006F577
:1049C0008066B0421AD006F58066B04218D006F56F
:1049D0008066B04216D006F58066B04214D006F567
:1049E0008066B0423FF434AF0A2634E7012632E74E
:1049F000022630E703262EE704262CE705262AE7C1
:104A0000062628E7072626E7082624E703B0F0BD98
:104A100000380140003C01400038024000000240E4
:104A20000004024010B582B01B4B1A6C42F0805259
:104A30001A641B6C03F080530193019B174A13689F
:104A400043F480331360FFF70FFE0446134B5B689B
:104A500013F4803F08D1FFF707FE001BB0F57A7F03
:104A6000F4D9032002B010BD0C4A136843F400339C
:104A70001360FFF7F9FD0446084B5B6813F4003F31
:104A800007D1FFF7F1FD001BB0F57A7FF4D90320C1
:104A9000E8E70020E6E700BF003802400070004071
:104AA000002800F0DB8170B582B00446036813F083
:104AB000010F3AD0A24B9B6803F00C03042B2BD0C0
:104AC0009F4B9B6803F00C03082B20D06368B3F561
:104AD000803F50D0002B54D1994B1A6822F4803279
:104AE0001A601A6822F480221A606368002B5FD073
:104AF000FFF7BAFD0546924B1B6813F4003F14D133
:104B0000FFF7B2FD401B6428F5D90320ABE18C4BC5
:104B10005B6813F4800FD9D0894B1B6813F4003FF6
:104B200003D06368002B00F09B81236813F0020F11
:104B300064D0834B9B6813F00C0F4DD0804B9B6867
:104B400003F00C03082B42D0E368002B79D07C4A99
:104B5000136843F001031360FFF786FD0546784BA9
:104B60001B6813F0020F63D1FFF77EFD401B022884
:104B7000F5D9032077E1724A136843F48033136058
:104B8000B3E7B3F5A02F09D06D4B1A6822F4803239
:104B90001A601A6822F480221A60A6E7684B1A6825
:104BA00042F480221A601A6842F480321A609CE74C
:104BB000FFF75AFD0546624B1B6813F4003FB4D063
:104BC000FFF752FD401B6428F5D903204BE15C4BF5
:104BD0005B6813F4800FB7D1594B1B6813F0020FB9
:104BE00004D0E368012B01D001203CE1544A136852
:104BF00023F0F803216943EAC1031360236813F02B
:104C0000080F46D0636983B34D4A536F43F00103E5
:104C10005367FFF729FD0546494B5B6F13F0020F01
:104C200037D1FFF721FD401B0228F5D903201AE1F7
:104C3000434A136823F0F803216943EAC103136070
:104C4000DCE73F4A136823F001031360FFF70CFD14
:104C500005463B4B1B6813F0020FCFD0FFF704FD56
:104C6000401B0228F5D90320FDE0354A536F23F09D
:104C700001035367FFF7F8FC0546314B5B6F13F0F8
:104C8000020F06D0FFF7F0FC401B0228F5D90320E5
:104C9000E9E0236813F0040F7ED0294B1B6C13F05E
:104CA000805F31D1264B1A6C42F080521A641B6C23
:104CB00003F080530193019B0125224B1B6813F4E1
:104CC000807F23D0A368012B34D0002B3CD11C4B18
:104CD0001A6F22F001021A671A6F22F004021A6793
:104CE000A368002B46D0FFF7BFFC0646144B1B6F92
:104CF00013F0020F4FD1FFF7B7FC801B41F288334E
:104D00009842F3D90320AEE00025D6E70D4A136898
:104D100043F480731360FFF7A7FC0646094B1B683A
:104D200013F4807FCED1FFF79FFC801B6428F5D958
:104D3000032098E0024A136F43F001031367CFE7A3
:104D40000038024000700040052B09D0484B1A6F14
:104D500022F001021A671A6F22F004021A67BFE7F5
:104D6000434B1A6F42F004021A671A6F42F00102B5
:104D70001A67B5E7FFF778FC06463D4B1B6F13F04B
:104D8000020F08D0FFF770FC801B41F28833984275
:104D9000F3D9032067E0F5B9A369002B62D0344A48
:104DA000926802F00C02082A5FD0022B19D0304A18
:104DB000136823F080731360FFF756FC04462C4BF6
:104DC0001B6813F0007F47D0FFF74EFC001B022842
:104DD000F5D9032047E0264A136C23F0805313646F
:104DE000DAE7234A136823F080731360FFF73CFC73
:104DF00005461F4B1B6813F0007F06D0FFF734FCFD
:104E0000401B0228F5D903202DE0E369226A1343F1
:104E1000626A43EA8213A26A5208013A43EA0243F1
:104E2000E26A43EA026343F00053114A5360136895
:104E300043F080731360FFF717FC04460C4B1B68AC
:104E400013F0007F06D1FFF70FFC001B0228F5D9F5
:104E5000032008E0002006E0002004E00120704765
:104E6000012000E0002002B070BD0120FBE700BF80
:104E700000380240F8B5254B9B6803F00C03042B67
:104E800041D0082B01D02248F8BD204B5A6802F0CF
:104E90003F025B6813F4800F12D01C4B5968C1F3BA
:104EA000881100231B48A1FB0001FFF779F9174B7C
:104EB0005B68C3F3014301335B00B0FBF3F0F8BD63
:104EC000124B5B68C3F388131E4600275C01002564
:104ED000E41A65EB0705A90141EA9461A001001BF2
:104EE00061EB0501CB0043EA5073C400A01943EB0A
:104EF00007018B0243EA905384022046194600239F
:104F0000FFF74EF9D3E70348F8BD00BF0038024071
:104F10000024F40040787D01002800F0A28070B5E4
:104F20000446524B1B6803F00F038B420CD24F4ACE
:104F3000136823F00F030B431360136803F00F0390
:104F4000994201D0012070BD236813F0020F17D0E1
:104F500013F0040F04D0464A936843F4E05393607F
:104F6000236813F0080F04D0414A936843F4604368
:104F700093603F4A936823F0F003A0680343936073
:104F80000D46236813F0010F31D06368012B20D048
:104F9000022B25D0364A126812F0020F63D0344932
:104FA0008A6822F0030213438B60FFF75DFB06461D
:104FB0002F4B9B6803F00C036268B3EB820F16D093
:104FC000FFF752FB801B41F288339842F0D903204F
:104FD00070BD274A126812F4003FE0D1012070BD75
:104FE000234A126812F0007FD9D1012070BD1F4BF7
:104FF0001B6803F00F039D420CD21C4A136823F078
:105000000F032B431360136803F00F039D4201D07D
:10501000012070BD236813F0040F06D0144A936872
:1050200023F4E053E1680B439360236813F0080F07
:1050300007D00F4A936823F46043216943EAC10310
:105040009360FFF717FF0A4B9B68C3F30313094AEA
:10505000D35CD840084B18600020FFF7C3FA00204B
:1050600070BD01207047012070BD00BF003C0240B0
:105070000038024084D60C08F8050020014B18685F
:10508000704700BFF805002008B5FFF7F7FF044B95
:105090009B68C3F38223034AD35CD84008BD00BF9A
:1050A0000038024094D60C0808B5FFF7E7FF044B20
:1050B0009B68C3F34233034AD35CD84008BD00BFAA
:1050C0000038024094D60C08F0B583B0044603685B
:1050D00013F0010F0CD0AF4B9A6822F400029A60D3
:1050E0009A68416B0A439A60436BC3B1002700E0A2
:1050F0000027236813F4002F15D0A64AD2F88C306D
:1051000023F44013E16B0B43C2F88C30E36BB3F52F
:10511000801F06D0002B00F01B81002504E0012732
:10512000E7E70127F6E70025236813F4801F0FD077
:10513000984AD2F88C3023F44003216C0B43C2F818
:105140008C30236CB3F5800F00F0048103B9012586
:10515000236813F0807F00D0012713F0200F40F068
:10516000FB80236813F0100F0CD08A4BD3F88C20EF
:1051700022F08072C3F88C20D3F88C20A16B0A43F4
:10518000C3F88C20236813F4804F08D0814AD2F8EA
:10519000903023F44033616E0B43C2F890302368A3
:1051A00013F4004F08D07B4AD2F8903023F4402308
:1051B000A16E0B43C2F89030236813F4803F08D0EF
:1051C000744AD2F8903023F44013E16E0B43C2F8D6
:1051D0009030236813F4003F08D06E4AD2F8903024
:1051E00023F44003216F0B43C2F89030236813F07F
:1051F000400F08D0674AD2F8903023F00303616C67
:105200000B43C2F89030236813F0800F08D0614A36
:10521000D2F8903023F00C03A16C0B43C2F890300D
:10522000236813F4807F08D05A4AD2F8903023F0D4
:105230003003E16C0B43C2F89030236813F4007F15
:1052400008D0544AD2F8903023F0C003216D0B43AC
:10525000C2F89030236813F4806F08D04D4AD2F81A
:10526000903023F44073616D0B43C2F89030236893
:1052700013F4006F08D0474AD2F8903023F440630B
:10528000A16D0B43C2F89030236813F4805F08D0FF
:10529000404AD2F8903023F44053E16D0B43C2F8FA
:1052A0009030236813F4005F08D03A4AD2F8903067
:1052B00023F44043216E0B43C2F89030236813F46B
:1052C000800F08D0334AD2F8903023F08063A16F6A
:1052D0000B43C2F89030236813F4001F0DD02D4A01
:1052E000D2F8903023F00063E16F0B43C2F89030A6
:1052F000E36FB3F1006F00F09980236813F0080F9B
:1053000000D0012513F4802F08D0224AD2F8903023
:1053100023F04073616F0B43C2F89030236813F49D
:10532000000F09D01B4AD2F8903023F08053D4F8F4
:1053300080100B43C2F89030002F79D12368B3F16D
:10534000007F75D0002D40F00781002003B0F0BD34
:105350000125E9E60127F9E60E4B1A6C42F080526E
:105360001A641B6C03F080530193019B0A4A136873
:1053700043F480731360FFF777F90646064B1B680A
:1053800013F4807F0AD1FFF76FF9801B6428F5D9E9
:105390000320DBE70038024000700040B34B1B6F76
:1053A00013F4407315D0226B02F44072934210D074
:1053B000AE4B1A6F22F44072196F41F480311967B5
:1053C000196F21F4803119671A671B6F13F0010FF1
:1053D00012D1236B03F44072B2F5407F1DD0A34A73
:1053E000936823F4F8139360A0490B6F226BC2F308
:1053F0000B0213430B67B4E6FFF736F906469B4BE7
:105400001B6F13F0020FE4D1FFF72EF9801B41F25E
:1054100088339842F3D9032098E79448826822F4AD
:10542000F812934919400A438260DDE7012564E7D9
:105430008E4A136823F080631360FFF715F9064660
:105440008A4B1B6813F0006F06D0FFF70DF9801B25
:105450006428F5D9032079E7236813F0010F13D0EE
:10546000636B8BB9814AD2F88430D2F884106068BB
:1054700003F4403343EA801301F070610B43A168E9
:1054800043EA0173C2F88430236813F4002F03D079
:10549000E26BB2F5801F43D013F4801F03D0236C5E
:1054A000B3F5800F3CD0236813F0807F11D06F4A92
:1054B000D2F88400D2F88410666823691B0443EA9A
:1054C000861300F07060034301F0E0410B43C2F823
:1054D0008430236813F0007F0DD0626823691B04B9
:1054E00043EA8213E26843EA0263A26843EA027372
:1054F0005E4AC2F884305D4A136843F080631360EB
:10550000FFF7B2F80646594B1B6813F0006F7FF4A3
:1055100019AFFFF7A9F8801B6428F4D9032015E719
:10552000524AD2F88430D2F88410606803F44033D1
:1055300043EA8013E06843EA006301F0E0410B4373
:10554000C2F88430D2F88C3023F01F03616A01392D
:105550000B43C2F88C30A6E7444A136823F080530B
:105560001360FFF781F80546404B1B6813F0005F9E
:1055700006D0FFF779F8401B6428F5D90320E5E64B
:10558000236813F4002F01D0E26B22B113F4801FC3
:105590001DD0236CDBB9354AD2F88830D2F8881098
:1055A000606903F4403343EA8013A06943EA00636F
:1055B00001F0E0410B43C2F88830D2F88C3023F47C
:1055C000F853A16A013943EA0123C2F88C302368F9
:1055D00013F4001F03D0E36FB3F1006F31D02368E1
:1055E00013F0080F19D0214AD2F88810D2F8883069
:1055F000606903F4403343EA801301F070610B43A8
:10560000E16943EA0173C2F88830D2F88C3023F4A0
:105610004033E16A0B43C2F88C30144A136843F0FC
:1056200080531360FFF720F80446104B1B6813F0FB
:10563000005F19D1FFF718F8001B6428F5D9032083
:1056400084E60A4AD2F88800D2F888106569236A8D
:105650001B0443EA851300F07060034301F0E0414E
:105660000B43C2F88830BAE700206FE600380240EA
:10567000FFFCFF0F2DE9F04105460F461646984600
:10568000069C2B68DB6937EA03030CBF0123002368
:10569000B3421ED1B4F1FF3FF3D02CB1FEF7E4FFCB
:1056A000A0EB08008442ECD82A68136823F4D07376
:1056B00013602A68936823F001039360202385F820
:1056C000693085F86A30002385F868300320BDE82A
:1056D000F0810020BDE8F0812DE9F04182B01E4646
:1056E00090F86930DBB2202B04D00223184602B0B8
:1056F000BDE8F08104460D469046002A18BF0029F7
:105700004CD090F86830012B01D10223EEE7012341
:1057100080F868300023C366212380F86930FEF7E3
:10572000A3FF0746A4F85080A4F8528003E0236842
:105730002A789A620135B4F852309BB2E3B1B4F8DA
:1057400052309BB2013B9BB2A4F8523000963B46CC
:10575000002280212046FFF78DFF08BBA368B3F528
:10576000805FE4D12369002BE1D1226835F8023B48
:10577000C3F308039362DEE700963B460022402114
:105780002046FFF777FF034608B10323AEE7202248
:1057900084F86920002284F86820A7E70123A5E7A0
:1057A0000323A3E72DE9F04182B01E4690F86A304A
:1057B000DBB2202B03D0022002B0BDE8F08104460A
:1057C0000D469046002A18BF00296DD090F8683029
:1057D000012B01D10220EFE7012380F8683000237C
:1057E000C366222380F86A30FEF73EFF0746A4F81E
:1057F0005880A4F85A80A368B3F5805F06D0A3B997
:10580000236973B9FF23A4F85C3011E0236923B93D
:1058100040F2FF13A4F85C300AE0FF23A4F85C30E8
:1058200006E07F23A4F85C3002E0B3F1805F02D091
:10583000B4F85C8010E023691BB97F23A4F85C30C6
:10584000F6E73F23A4F85C30F2E723685A6A5FFA70
:1058500088F313402B700135B4F85A309BB2E3B192
:10586000B4F85A309BB2013B9BB2A4F85A30009670
:105870003B46002220212046FFF7FCFEB0B9A3687A
:10588000B3F5805FE1D12369002BDED123685B6A29
:1058900008EA030325F8023BDEE7202384F86A3098
:1058A000002084F8680087E7012085E7032083E76C
:1058B00038B5044683680269134342691343C269D9
:1058C000134301680868A04A024013430B60226832
:1058D000536823F44053E1680B435360A369226A81
:1058E000134321688A6822F4306213438B60256871
:1058F000964B9D422BD0964B9D423CD0954B9D4262
:1059000052D0954B9D4267D0944B9D427CD0944B96
:105910009D4200F09480934B9D4200F0AB80924BEF
:105920009D4200F0C2801023E269B2F5004F00F002
:10593000DB80082B00F26881DFE813F031013C01C5
:105940004701660151016601660166015C0103F5CC
:105950009433D3F8903003F00303032B03D8DFE82C
:1059600003F0BF0604081023DEE70223DCE704236C
:10597000DAE70823D8E703F5FA33D3F8903003F0D9
:105980000C030C2B08D8DFE803F0AD0707070B0763
:105990000707090707070D001023C5E70223C3E720
:1059A0000423C1E70823BFE703F5F833D3F89030A9
:1059B00003F03003102B0DD005D9202B08D0302B4D
:1059C00004D10823B0E70BB90023ADE71023ABE700
:1059D0000223A9E70423A7E703F5F633D3F89030B1
:1059E00003F0C003402B0DD005D9802B08D0C02B6D
:1059F00004D1082398E70BB9002395E7102393E718
:105A0000022391E704238FE703F5F433D3F89030B2
:105A100003F44073B3F5807F0FD007D9B3F5007F4F
:105A200009D0B3F5407F04D108237DE70BB90023EB
:105A30007AE7102378E7022376E7042374E703F577
:105A40009233D3F8903003F44063B3F5806F0FD0F6
:105A500007D9B3F5006F09D0B3F5406F04D108231F
:105A600062E70BB901235FE710235DE702235BE7E1
:105A7000042359E703F5E033D3F8903003F440539F
:105A8000B3F5805F0FD007D9B3F5005F09D0B3F548
:105A9000405F04D1082347E70BB9002344E71023F4
:105AA00042E7022340E704233EE703F5DE33D3F861
:105AB000903003F44043B3F5804F0FD007D9B3F5CE
:105AC000004F09D0B3F5404F04D108232CE70BB9A0
:105AD000002329E7102327E7022325E7042323E7F0
